:020000040800F2
:10000000684D00209DAC0B082DAE0B0831AE0B08DF
:1000100035AE0B0839AE0B083DAE0B0800000000F2
:10002000000000000000000000000000610B0B0851
:1000300041AE0B0800000000050B0B08C1820B0845
:1000400045AE0B0849AE0B084DAE0B0851AE0B0880
:1000500055AE0B0859AE0B085DAE0B0861AE0B0830
:1000600065AE0B0869AE0B086DAE0B0871AE0B08E0
:1000700075AE0B0879AE0B087DAE0B0881AE0B0890
:1000800085AE0B0889AE0B088DAE0B0891AE0B0840
:1000900095AE0B0899AE0B089DAE0B08A1AE0B08F0
:1000A000A5AE0B08A9AE0B08ADAE0B08B1AE0B08A0
:1000B000B5AE0B08B9AE0B08BDAE0B08C1AE0B0850
:1000C000C5AE0B08C9AE0B08CDAE0B08D1AE0B0800
:1000D000D5AE0B08D9AE0B08DDAE0B08E1AE0B08B0
:1000E000E5AE0B08E9AE0B08EDAE0B08F1AE0B0860
:1000F000F5AE0B08F9AE0B08FDAE0B0801AF0B080F
:1001000005AF0B0809AF0B080DAF0B0811AF0B08BB
:1001100015AF0B0819AF0B081DAF0B0821AF0B086B
:1001200025AF0B0829AF0B082DAF0B0831AF0B081B
:1001300035AF0B0839AF0B083DAF0B0841AF0B08CB
:1001400045AF0B0849AF0B084DAF0B0851AF0B087B
:1001500055AF0B0859AF0B085DAF0B0861AF0B082B
:1001600065AF0B0869AF0B086DAF0B0871AF0B08DB
:1001700075AF0B0879AF0B087DAF0B0881AF0B088B
:1001800085AF0B0889AF0B088DAF0B0891AF0B083B
:1001900095AF0B0899AF0B089DAF0B08A1AF0B08EB
:1001A00089910B08A5AF0B08D1910B08A9AF0B08DB
:1001B00061430B08ADAF0B08B1AF0B08B5AF0B082F
:1001C000B9AF0B08BDAF0B08410821084108610811
:1001D0004108200021086108410841082108210840
:1001E0006108410841084108210820004108200019
:1001F000210821084108410861082108610882108E
:100200004108410841084108410861086210200086
:10021000410882106210A210821041086108621029
:10022000610841086210410841082108610841083D
:1002300041084108821062106108A21082108210E9
:100240008210821061086210610841086108621022
:100250006108621061086210621082108210410809
:100260006108410841086210A210A21082106210B9
:100270008210821082106210610882108210610860
:10028000621082108210410861088210A318A21027
:10029000C318A318A210621082108210A21082103C
:1002A0008210A3188210A318821082108210C31823
:1002B000A318A210E318A318C318C318A210821021
:1002C000E318C318C318C318C318C318A210A3187F
:1002D000A210C318C318A210A318E3182421E42005
:1002E000C318A210C318E420E318C318E318E420CD
:1002F000E318C318E318C3180421E4200421E42000
:100300000421042125290421242125290421242133
:10031000E42004214529042125290421042145291B
:10032000042104210421E420E318E42004212421F1
:1003300045294529452925290421652945292529B6
:10034000242125296631452965296631A631A73939
:100350006529452945296529A739652986316529F2
:1003600066316631A631C7396631A63145298631F5
:100370008631E739C739E8410842E739E841E739CA
:10038000A739A631C739E841C739C739E739E84144
:10039000E739C739C739C739E841494A0842294AC4
:1003A000C7396A52494A8A5228428A52494A2842DF
:1003B000294A8A52494A294A28426A52494A2842C5
:1003C0008A526A52494A0C63AA52494AEB5A6A5203
:1003D000694AAB5A8A52EB5AEC62CB5A0C63CB5A3D
:1003E0008E73CB5A4D6B2C63CB5A8E738E730C630A
:1003F0002D6B4D6BCF7B4D6B4D6B0C632C63CF7BAB
:10040000CF7BF083518CF083CF7BCF7B9294518C48
:1004100010843084CF7B518C108472943084D39CB0
:100420009294B39CD39C718C1084929492949294E5
:10043000B39C55ADF39C9294D39CF39C55AD75AD94
:10044000D39C55AD34A576B5B6B5D7BD35AD55AD54
:1004500055AD75AD55ADB7BDD7BD75ADB6B5D7BD4D
:1004600076B596B5D7BDD7BDD7BDD7BDB6B596B510
:10047000F8C57AD679CE7AD659CE38C67AD659CE3C
:10048000BAD69AD6B7BD38C659CEBBDEFBDE7AD611
:10049000DBDEBAD67AD6FCE6DBDEDBDE7AD6FBDE46
:1004A0001CE7BBDEFBDEFCE69AD6BAD63DEF3CE7A6
:1004B000FCE65DEF3CE71CE71CE73DEF3CE73DEF6A
:1004C0007DEF3DEF3CE77DEF7EF75DEF7DEF7EF763
:1004D0005DEF5DEF7EF77DEF9EF79EF79EF75DEF98
:1004E0009EF77EF7BEF71CE77DEFBEF77EF7DFFFD6
:1004F0005DEF9EF75DEFBEF79EF7BEF79EF79EF7A6
:100500007DEF7EF77EF77DEFBFFF7EF7BEF77DEFD5
:10051000BFFF9EF73CE75DEF5DEF5DEF9EF71CE7E9
:100520005DEF5DEF5DEF1CE73DEF9EF75DEF7DEF6B
:100530003DEF1CE77DEF1CE7FCE6FBDE1CE73DEF33
:100540009AD61CE7FBDEDBDEFCE63CE73DEF3DEF49
:10055000DBDEDBDEDBDEBBDEBAD69AD679CEBBDEF7
:10056000DBDE9AD6DBDE59CE9AD67AD659CEBAD60B
:1005700059CEFBDEDBDE79CE18C638C69AD659CE08
:1005800018C639CE18C659CE2108410820004108A6
:10059000621041082000410841084108410820003C
:1005A000410841084108410841082108200041084C
:1005B0002000210820002108410861082108610865
:1005C0008210410841084108210841086108621071
:1005D0002108410882108210A318610841086210A6
:1005E0008210410841088210410841084108610811
:1005F0004108410841088210621062108210821086
:10060000A210821082104108621041086108621035
:10061000610862108210610862106108A210621005
:10062000410862104108410862108210A210621055
:100630006210A21082108210410862108210821093
:10064000610862108210621061086210A210A31883
:10065000A210C318A318A210621062108210A3186F
:1006600082108210C3188210C21082108210821071
:10067000C318A2108318E318C318C318A318A21034
:10068000A318E318C318C318C318C318A3188210FB
:10069000A318C318C318C3188210C318E420042178
:1006A000E318C3188210E318E420C318C318E42029
:1006B000E318E420C318E420E318042104210421F2
:1006C000E318242104212421E420242104210421ED
:1006D0000421042104216529042124210421242149
:1006E00045290421E42004210421E318E420042105
:1006F00025296529452945290421E420452945293D
:100700004529242145296631452965298631C7397E
:10071000A6316631452945294529A73965298631FC
:10072000452986314529A631C7396631A63166315A
:100730008631A739E739C739C739E841C739C739D9
:10074000A739A631A739C7390842A631C7390842A7
:1007500008420842C739E739E7390842494A28427E
:10076000494AE739AA52494A8A52494ACB5A694A00
:10077000294A494ACB5A494A6A52494A6A52494A1D
:10078000694AAB5A8A528A522C638B5A694ACB5AAD
:10079000494A494AAA526A52EB5AEC62EC620C632B
:1007A0002C638E73EC626D6B0C63EC62CF7B6D6BB4
:1007B0000C634D6B4D6BCF7B6D6B4D6B0C634D6B59
:1007C000EF7BEF7B518C718CEF7BCF7B30849294ED
:1007D000318C3084318CCF7B718C30847294318C2D
:1007E000139D9294F39CB39C7294518C718CB2942F
:1007F000B39CD39C55ADD39CB39CB39C14A555AD71
:1008000096B5B39C35AD75AD76B5B6B5F7BD35AD1E
:1008100075AD35AD76B575ADF7BDB7BD96B5B7BDA0
:10082000D7BD96B5B6B5D7BDF7BDD7BDF8C5B7BD71
:10083000B6B5F8C59AD699CE7AD659CE59CE9AD6AB
:1008400059CEDBDE79CEF8C559CE59CEDBDEDBDE04
:100850007AD6DBDEBAD69AD61CE7DBDEBAD69AD6D3
:100860001CE71CE7BBDE1BDFDBDEBBDEDBDE5DEF98
:100870003CE7FCE65DEF3DEF3CE71CE75DEF1CE786
:100880005DEF7DEF3DEF3DEF9EF77DEF3DEF9EF796
:100890009EF75DEF5DEF7EF75DEF9EF79EF79EF7AB
:1008A0005DEF9EF79EF77EF71CE79EF79EF79EF79B
:1008B000BFFF5DEF9EF73DEFBEF77EF7BFFF9EF7F0
:1008C000BEF75DEF7DEF9EF75DEFDFFF7DEF9EF7FB
:1008D0005DEF9EF77EF73CE75DEF3DEF5DEF7DEF6F
:1008E0001CE75DEF5DEF5DEF1CE73CE77EF75DEF3A
:1008F0005DEFFCE61CE75DEF1CE7DBDE1CE7FBDEE3
:100900001CE77AD61CE7FBDEBBDEFBDE3CE73CE700
:100910003DEFBAD6DBDEDBDE9AD6BBDE7AD679CE09
:10092000BBDEBAD69AD6BBDE18C699CE59CE39CE22
:100930009AD659CEFCE6BBDE39CEF8C539CE79CE93
:1009400059CE18C618C618C621082000410821082B
:10095000410861084108010841084108210841088F
:1009600020004108410841084108410821082108A8
:100970004108200041082000410841084108410881
:10098000621082104108410841084108410861088D
:1009900061082108610882108210A21041084108F4
:1009A000621082106108410861084108210841086D
:1009B0006210410841086108821061088210A31882
:1009C0006210821082108210410862104108610892
:1009D0006210610862106108621082106210821059
:1009E0006210410861084108610882108210A2105B
:1009F00062106108A21082108210410882108210D9
:100A00006210610882108210621061086210A210E8
:100A1000A318C318C318A210A2106210821082106B
:100A2000A210A2108210C3188210A3188210821084
:100A30006210C318A210C318E420C210C318A31870
:100A4000A210A318E420C318C318C318C318C318EE
:100A5000A210A210C318C318C3188210C31804210F
:100A60000421E420C318A318E318E420C318C31812
:100A7000E318E420C318C318E318E4200421042178
:100A80000421E420042104212529E420452904210E
:100A9000042104210421042165290421252904219C
:100AA000252945292421E3180421E4200421E31801
:100AB00004210421652925294529242104216529AA
:100AC0004529252924216529863165296631A739DB
:100AD000C73986318631452965296631A6316631A7
:100AE00086314529A6316631A739E739652986312E
:100AF00045298631A739E739E739E7390842E73927
:100B0000E841C739A631C739E7390842C739C7397B
:100B1000284208420842C739C841E739294A494AA8
:100B20002842294AE841AA526A526A52494AAB5AB3
:100B3000694A294A494ACB5A28428A52694A694A2B
:100B4000494A8A52CB5A694AAB5A4D6B8A528A52E9
:100B50000C636A528A52CB5A8A52EB5AEB5AEC62B5
:100B6000EB5A4D6B8E73EC628E730C630C63EF7BF0
:100B70004D6B0C634D6B8E738E736E732D6B0C63AC
:100B80008E7310841084729472941084CF7B518C75
:100B9000B294518C318C1084F083718C318C718CB7
:100BA000729414A5B29414A5D39C9294518C72940F
:100BB000B294D39C14A575ADD39CD39CD39C34A57F
:100BC00076B596B5F39C35AD96B5B6B5D7BDF8C537
:100BD00035AD96B555AD96B596B518C6B6B596B5BC
:100BE000D7BDD7BDB7BDB7BDD7BDF8C5D7BD18C632
:100BF000B6B5B7BD18C69AD69AD67AD659CE59CEBA
:100C00009AD679CEDBDE59CE18C679CE59CEFBDE28
:100C1000DBDEBAD6DBDEBAD6BBDE3CE7DBDEBBDE34
:100C2000BAD63CE71CE7DBDE1CE7DBDEBBDEDBDE47
:100C30005DEF3CE71CE75DEF3CE73DEF3CE75DEF38
:100C40001CE77DEF7EF73CE73DEF9EF79EF75DEFFB
:100C50009EF79EF75DEF7DEF7DEF5DEF7EF77DEF19
:100C60009EF75DEF9EF79EF77EF71CE79EF79EF7D7
:100C70009EF7BFFF7DEF7EF75DEFBEF79EF79EF715
:100C80009EF79EF75DEF7DEF9EF75DEFDFFF7EF74E
:100C90007DEF5DEF9EF75DEF1CE73CE73DEF3DEF3D
:100CA0005DEF1CE75DEF5DEF3CE71CE75DEF7DEF7F
:100CB0005DEF5DEFFBDEFCE63CE71CE7DBDE1CE7FF
:100CC000FBDEFBDE7AD6FCE6FBDEBBDEFCE61CE7E9
:100CD0001CE73CE79AD6BBDEFBDE79CE9AD679CE0E
:100CE0007AD6BAD69AD69AD6BAD618C67AD659CE5F
:100CF00039CE79CE59CEFBDE7AD618C6D7BD79CE9D
:100D000059CE38C6F8C518C621082108410841083F
:100D10002108410861084108200061084108410894
:100D20004108210861084108410861084108200084
:100D300041082108210841082108410861084108AB
:100D40004108610882102108410821084108621009
:100D5000610841082108610862108210A318410847
:100D600061086210821041084108621041082000A9
:100D70004108610841084108621082106108A21010
:100D8000821082108210A210821061086210410845
:100D900062106108621082106108410882106108C7
:100DA000A2106210410862104108410882108210AE
:100DB000A2106210821082108210821041088210EC
:100DC000821082106108821082106108410862104E
:100DD000A210A210A318C318A210A21062108210B1
:100DE000A318A21082108210C3188210A2108210C1
:100DF000A2108210C318A318C318E318C318C3188D
:100E0000A318A210C318E318C318A318C318C31853
:100E1000A3188210A318C318C318A3188210C318EC
:100E200024212421E318C318A318E318E420C318CD
:100E3000C318C318E420C318C318E318E42004211E
:100E400004210421042104212421242104214529F1
:100E500004210421042104212529452904212421D8
:100E60000421452945292529E42004210421E318EA
:100E7000E42024212529652925294529042125291E
:100E80006529652925292529863166316529652940
:100E9000C739C73986316631452965296631A6319A
:100EA000863186314529A6316529A739C73986316A
:100EB00086318631A631E841E841C739E841E84149
:100EC000E739E841A739C739E739E8410842A73986
:100ED000C739294A08420842C73908420842294A04
:100EE000494A494A494A0842AA528A526A52894A98
:100EF000AB5A694A494A694ACB5A494AAA526A5284
:100F00006A52494AAA52EC62494ACB5A4D6B694A25
:100F10008A520C63494AAA52CB5AAB5A0C63EC6210
:100F20000C63EB5A4D6B6D6BEC626D6BEC622D6B71
:100F300010846D6B0C636E73CF7B6D6BAE732D6B1A
:100F40000C63AF7B10843084B39C718C1084CF7B96
:100F5000B39CB39C718C718C10841084518C7294EE
:100F6000518C929414A5D39C34A5D39CB2949294A2
:100F70009294B39CB39C34A576B5B294F4A4F39C3C
:100F800055AD75AD96B514A555ADB7BDB7BDF7BD9B
:100F9000F7BD55ADB6B555AD96B5B7BD39CEB6B5FD
:100FA000B7BDF7BD96B5D7BDF7BDD7BD18C6F7BD60
:100FB00039CED7BDD7BD39CEBAD6BAD67AD659CE64
:100FC0009AD67AD69AD6DBDE59CE38C67AD67AD673
:100FD0001CE7DBDEBBDEDBDEBAD6DBDE3CE7DBDEDE
:100FE000BBDEBAD63DEF1CE7DBDE3DEFDBDEDBDE52
:100FF000FCE67DEF3DEF1CE77EF73CE75DEF5DEF44
:101000005DEF1CE77EF77DEF3DEF7DEFBEF77EF7EE
:101010005DEF9EF79EF73DEF7DEF7EF75DEF9EF76C
:101020007EF79EF75DEF9EF7BEF75DEF3CE7BFFFF3
:101030009DEFBEF7BEF77DEF7EF77DEFBFFF9EF71A
:101040009EF79EF79FFF5DEF5DEF9EF75DEFDFFF81
:101050007DEF5DEF5DEF7EF75DEF1CE71CE71CE7C2
:101060003DEF3CE71CE73DEF5DEF1CE71CE75DEF64
:101070005DEF3DEF3DEFDBDE1CE71CE71CE7BBDE71
:101080001CE7DBDEDBDE7AD6FBDEDBDEBAD6FCE697
:101090001CE71CE71CE79AD69AD6FCE679CE7AD6EE
:1010A00079CE7AD69AD69AD67AD67AD618C679CE04
:1010B00018C659CE59CE7AD6FBDE59CE18C6B7BD62
:1010C0007AD638C618C6D7BD41082000200041088E
:1010D00041084108410862102108210861084108BF
:1010E00021084108210861084108410841082108F8
:1010F0002000410841082000410821082108621011
:101100004108410862108108210861082000210877
:101110006210610861082108821061088210821043
:10112000410861086210821041086108621041089C
:1011300041084108621041084108821082104108AC
:10114000A31882108210821082108210610862102F
:101150004108610862106108621061086210821023
:101160008210A21061084108610841086210A210B3
:101170008318A2106210A21082108210621041081F
:101180008210821062106210821082106108821038
:101190008210A318A210C318C318A318A21082109B
:1011A0008210C318821082108210C3188210A210FD
:1011B0008210A3188210E318A210C420E318C318E9
:1011C000C318A210A318C318E420C318C318C31867
:1011D000C318A210A210A210C318C318C318A210DB
:1011E000E42004210529E318C318C318E420E318F8
:1011F000C318C318E3180421C318E318E42004211A
:101200000421042104210421042124210421042196
:10121000452904212529E42024212529452925299A
:1012200024210421652925292421E3180421E4200F
:10123000E420E31825292421663145296529042164
:101240004529452966312421452986316631663193
:101250006529C739E73986316631652945298631DF
:101260008631863186314529A7398631A739C73974
:10127000863166318631A631E8410842E7390842B5
:10128000E739E841E739A739C739E7390842084261
:10129000C739E8412842494A0842E739084228420A
:1012A000694A294A694A294A6A52AA52CB5A6A5259
:1012B000AA52CB5A6A52694A8A52CB5A494AAB5A05
:1012C000AA526A52494ACB5AEB5A694A0C634D6B8F
:1012D0006A52CB5A0C636A52CB5ACB5ACB5A0C6324
:1012E000EC624D6BEC62CF7B6D6B2D6B6E73CB5AEA
:1012F0004D6BF0834D6B2C636D6B10846E73AE730E
:101300002D6B2C63F0831084518CD39C72943084A9
:10131000F083D39CB39C729492941084518C518C22
:101320007294518CF39CF4A4D39C35ADD39CB39CA4
:10133000D39CB294D39CD39C55AD75ADD39CF4A4EF
:1013400014A555AD76B595AD55AD55ADD7BDD7BD49
:1013500018C6D7BD55ADB7BD96B596B5F7BD59CE34
:10136000B7BDD7BD18C696B5D7BD18C6D7BD18C668
:1013700018C659CED7BDF7BD59CEBAD6BBDE99CE69
:1013800059CEBAD67AD6BAD6DBDE59CE59CE9AD64F
:101390007AD61CE7DBDEFCE6DBDE9BDEFCE63CE728
:1013A000DBDEBBDEDBDE3DEF1CE7FBDE5DEFDBDE25
:1013B000FBDE1CE77EF75CE73DEF7DEF3DEF5DEF89
:1013C0005DEF5DEF3DEF9EF77DEF3DEF7EF7BEF702
:1013D0009EF77DEF9EF79EF73CE77DEF7EF75DEF92
:1013E0009EF77DEF7EF75DEFBEF7BFFF5DEF3CE759
:1013F000BFFF7EF7BFFF9EF77EF75DEF9EF7BEF75C
:101400009EF79EF79EF79EF77DEF5DEF7EF77DEFEF
:101410009FFF7DEF3DEF7DEF7DEF3DEF1CE71CE78C
:101420001CE73DEF1CE71CE73DEF5DEFFCE61CE72A
:101430005DEF5DEF3CE73CE7DBDE1CE7FCE6DBDE77
:10144000BBDE1CE7DBDE9AD69AD6DBDEBBDEBAD685
:10145000FCE61CE71CE7FBDE9AD69AD6DBDE79CEEB
:1014600059CE59CE7AD699CE79CE9AD659CE18C6BB
:1014700079CEF8C579CE39CE9AD6DBDE18C617BE3E
:10148000B7BD79CE39CE18C64108410821082000E1
:101490004108410841084108610821082108610804
:1014A00041084108410841086210410861084108AB
:1014B000410821084108210840004108410841082D
:1014C000610841086108621061082108610841084B
:1014D0004108821062104108210882106210A3188E
:1014E0008210410861088210821041086108610879
:1014F00041084108410861084108410882108210F2
:101500006108A318A2108210A3188210821061082B
:101510006210610861086210821082106108621016
:1015200082108210A3186108410862104108610806
:101530008210A21082106210A2108210A210610804
:1015400061088210A21061086210A210831861085D
:1015500062108210A318A318C318C318C3188210EE
:1015600082108210C31882108210A210A318A31830
:101570008210A2108210A318C318A210E420C3186E
:10158000E420A318A210A318E318E318C318C31883
:10159000C318C3188318A318A210C318E318A318FC
:1015A000A318E31824210421E318C318C318042145
:1015B000C318C318C318E3180421C318E318E420A0
:1015C00004210421042104210421042125290421CA
:1015D00004214529042124210421242145294529C8
:1015E00045290421252945292421042104210421F8
:1015F0000421E318E42025294529652945294529A1
:10160000042166316529652925294529A6316631D8
:1016100086318631C739C7398631663165296631E9
:1016200086318631A73986314529A631A631C73999
:10163000C739C7398631A631A73908420842E8417F
:1016400028420842E841073AC739C73908420842E8
:10165000E739C739E8412842294AE841E739E841F2
:10166000294A694A294A6A5228428A528A52CB5ADE
:10167000494AAB5AAB5A494A6A52AA52AB5A694ACA
:101680008A52AA526A528A52CB5A0C638A522D6BE2
:101690004D6B8A52EB5AEC628A52EB5AEB5A0C634E
:1016A0000C630C632C630C63CF7B4D6B6D6B8E7383
:1016B000EC628E73EF7B2D6B0C634D6B30846E731D
:1016C000CF7B4D6B2D6B30843084518CD39C718CCF
:1016D00030841084F39CD39C9294B294318C718C9E
:1016E000718CB39C318C14A514A5F39C35ADF39C7F
:1016F000B39CF39CF39CD39CF4A476B555ADF39CBA
:10170000F4A434A576B596B555AD75AD96B5D7BDEF
:10171000F7BD18C6D7BD75ADB7BD96B5B7BD18C670
:1017200059CED7BDD7BD38C696B5F8C518C6F8C5C9
:1017300018C638C659CEF7BDF8C59AD6BAD6BBDE9C
:101740009AD679CEBBDE9AD6DBDEDBDE59CE9AD6D0
:10175000BAD69AD61CE7DBDE1CE7DBDEBAD63CE75E
:101760003DEFFBDEBBDE1BDF3DEFFBDE1CE75DEF8D
:10177000DBDEFCE63DEF7DEF3DEF5DEF7EF75DEFFD
:101780005DEF5DEF5DEF5DEF9EF77DEF5DEF9EF747
:101790009EF77EF77DEF7EF79EF73DEF5DEF7DEFE5
:1017A0005DEF9EF79EF77EF77DEF9EF7BFFF3CE76C
:1017B0005DEFBEF77EF7DFFF9EF77EF75DEF9EF7EA
:1017C000BEF7BFFF7DEF9EF77EF75DEF5DEF5DEF4C
:1017D0009EF77EF77DEF1CE75DEF5DEF1CE71CE7F2
:1017E0001CE71BDF3DEFFBDE1CE75DEF5DEFFBDE83
:1017F000FCE65DEF3DEF3CE71CE7BBDE1CE7FBDEF4
:10180000DBDEBAD6FBDEDBDE79CEBAD6BBDEBAD6FD
:101810009AD6FBDEFCE6FCE6DBDE9AD67AD6BBDEA9
:1018200079CE59CE39CE7AD67AD659CE79CE18C657
:1018300018C639CED7BD79CE38C69AD69AD6F8C54D
:10184000F7BDD7BD79CE39CE6108410841082108DE
:101850002000410841084108410861082000410872
:1018600061084108410821084108610841086210E7
:101870004108210820006108210841082000410892
:10188000410862104108410882104108410841089E
:10189000410841086108610821086108A210610837
:1018A000A31861084108821082106210410862107A
:1018B0004108410841084108621041084108A2104E
:1018C00082106210A3188210A210A3188210621056
:1018D000610842106108610862108210821061087C
:1018E00062108210A2108210410861086210410843
:1018F00062108210A31882106210A318A210821026
:101900006210621082108210821082108210821087
:1019100061088210A210C318A210E318A318C318FC
:10192000821082108210C31882108210A318A21095
:10193000C3188210A318A210A318C318A210E42081
:10194000C318E318C318A210A318E420E318A318BF
:10195000C318C318C210A210C318C318C318E318C1
:10196000A318C318042105290421C318A318E318D8
:101970000421C318C318E420E318E420C318E318B3
:10198000E420242104210421042104210421242110
:1019900004212529442104212529042145294529FB
:1019A00024214529042125296631252904210421E2
:1019B00004210421E42004212421663165296631B3
:1019C0004529042166316631652925294529A63135
:1019D000452986318631E841E73986314529863106
:1019E0004529A7396529C73966318631A631A73916
:1019F000E739A739C7398631A631C7390842E841E6
:101A000008420842E841E841E739A739C7390842A6
:101A10000842C739C73908422842294AE841E7390C
:101A20000842494A8A5208428A520842AB5A8A52AC
:101A3000EB5A694ACB5AAB5A494A694ACB5A8A523D
:101A40008A528A528A52694A8A52EC62CB5AAA5204
:101A50004D6B0C638A522C63EC62AB5A0C63EB5AED
:101A60002C632D6B0C634D6B2D6B10842D6B8E7363
:101A70008D6B0C63CF7BF0834D6B4D6B6E7310845D
:101A80004D6BAF7B4D6B8E73518C518C9294D39C6C
:101A9000518C318C518CF4A4D39CB39CB294318C76
:101AA000B2947294D39C718C35AD14A514A534A551
:101AB000F39CD39CF4A4F4A414A514A596B555AD39
:101AC00014A514A555AD96B596B555AD96B5B6B554
:101AD000F8C518C639CED7BD96B5D7BDB6B5D7BDF2
:101AE00038C659CEF7BDF8C518C6B6B518C618C65B
:101AF00038C618C639CE59CE18C618C6BBDEBAD6F7
:101B0000BBDE9AD67AD6DBDE9AD6FBDEDBDE59CE9A
:101B1000BBDEBAD6DBDEFCE6DBDE3CE7DBDEDBDEB3
:101B20003CE71CE7FCE6DBDE1CE75DEFFBDE1CE7C9
:101B30005DEFFBDEFCE67DEF7EF75DEF5DEF7DEFB9
:101B40007EF75DEF5DEF3DEF7DEF9EF77DEF3DEFC3
:101B5000BEF79EF77EF79EF77EF79DEF5DEF5DEF98
:101B60007EF75DEF9EF79EF75DEF7EF79EF7BFFF76
:101B70003CE77EF7BEF77DEFDFFF9EF79EF75DEF58
:101B8000BEF79EF79EF77DEF9EF75DEF7DEF5EF768
:101B90003CE79EF75DEF7EF71CE75DEF5DEFFBDE58
:101BA000FCE6FCE61CE73CE7DBDE1CE73CE73DEF40
:101BB0001BDFFCE65DEF1CE73CE7DBDEBBDE1CE782
:101BC000DBDEBBDEDBDEDBDEBBDE59CEBBDEBAD668
:101BD000BBDE9AD6FBDEFBDEFCE69AD69AD69AD618
:101BE0007AD679CE38C638C679CE7AD659CE79CE5D
:101BF00018C618C638C6B7BD7AD638C6BAD659CEB2
:101C0000F8C5D7BDF8C539CE41086108210841089B
:101C10004108210861084108410862104108210873
:101C20004108621041084108410841086108410823
:101C3000610861082108410841082108410841085C
:101C400041084108610841084108821041084108E3
:101C500041084108410862106108210861088210AA
:101C60008210A318610841088210A2106210410876
:101C7000821041084108410861086108410862106A
:101C8000821062108210A318A2108210A21082107B
:101C90008210621041088210410882106210821086
:101CA000610862106210C318821041086210610856
:101CB000610882108210C31882108108A318821054
:101CC000821061086210A2108210610882108210D6
:101CD000821061088210A318C318C318C318A31870
:101CE000A210821082108210C31882108210C318B2
:101CF000A318C3188210A2108210C318A318C21010
:101D0000E420C318E420A318A210C318E318C318D2
:101D1000C318C318C318C318A318A318C318C3182B
:101D2000E318A318C31804212421E420E318C318DE
:101D3000E318E420C318C318C318E4200421C3180F
:101D4000E318E4202421042104210421252904216D
:101D50002421042145292529252924210421242160
:101D60006631042145292421252985292529042195
:101D70002421042104210421242125296529452920
:101D80006631452924218631652945294529663151
:101D9000A63166318631A739E739C739A7396529B0
:101DA00086316529C7398631C7396631A631863112
:101DB000C739E841A631C7398631A739E739084222
:101DC000E7390842284208420842E739C739E84162
:101DD0000842294AC739C7392842294A494A08428C
:101DE00008422842494AAA52294A8A522842EB5AB2
:101DF0008A52EC62694A0C63AB5A694A6A52EC62D5
:101E0000AA52AB5A8A528A526A52CB5A0C63AB5AC4
:101E1000CB5A6D6BEC628A522C63CB5ACB5A2D6B2A
:101E2000EB5A4D6B4D6B4D6B4D6B6D6B10842D6B89
:101E3000AF7B6D6B2C63F083EF7B4D6B6E73AE737A
:101E400030848E738E732C638E7372947294D39CD1
:101E5000D39C718C30849294F4A4F39CB39CB39C77
:101E6000518CD39C9294D39C929475AD14A535ADAE
:101E700035ADF39CD39CF4A414A514A555ADB6B50B
:101E800035AD34A514A575ADB7BDB6B555AD96B590
:101E9000D7BD18C638C639CEB6B5D7BDB7BDB7BDE4
:101EA000F7BD5AD639CE18C618C618C6D7BD18C63B
:101EB00018C638C638C659CE39CE38C618C6DBDE85
:101EC000DBDEBBDE9AD69AD6BBDEBAD6FCE6BBDE3C
:101ED00059CEDBDEBAD61CE7FCE6DBDE3CE7DBDE18
:101EE000DCE65DEF3CE7FBDEDBDE5DEF3DEFFCE6D5
:101EF0003DEF3CE71CE71CE77DEF9EF75DEF7DEFD4
:101F00007DEF7EF77DEF7DEF3DEF7EF79EF75DEF96
:101F10005DEFBFFF9EF75DEF9EF79EF77DEF5DEFF4
:101F20005DEF5DEF7DEF7EF79EF75DEF9EF7BEF70D
:101F30009EF73CE79FFF9EF77EF7DFFF7DEF9EF762
:101F40003DEFBFFF7EF79EF75DEF7EF73CE75DEF6D
:101F50007EF73CE7BFFF3CE75DEF1CE73DEF5DEF41
:101F6000DBDEFBDEFBDEFCE63CE7BBDE1CE73DEF39
:101F70001CE7FBDE1CE73DEF1CE73CE7BBDEBAD607
:101F80001CE7DBDE9AD6DBDEBAD6BAD639CEBAD6B5
:101F9000BBDE9AD69AD6DBDEFBDEFBDE7AD699CEA6
:101FA0009AD659CE7AD618C638C659CE59CE39CE19
:101FB00059CEF7BD18C618C6D7BD7AD639CE9AD62F
:101FC00018C6D7BDD6B518C66210210861084108E9
:101FD00041082108410841084108410861084108B9
:101FE0002108610861082108410821086210610880
:101FF0004210610841082108410861082108410890
:1020000041084108410861084108610882104108FF
:1020100041084108410861088210621021088210BD
:1020200082108210A3186108410882108210610892
:1020300041088210410841084108421061084108E6
:102040006210A2106108A210A318A210A318A21077
:1020500082106210610841088210610882108210AB
:102060006210610882106210C31882104108621069
:10207000610842108210A210A31882108210A318C7
:10208000A210621061088210821082106210821009
:10209000A210821062108210A318A210C318C318D5
:1020A000C318A31882108210A318C318A21082109C
:1020B000C318A210A318A318A2108210C318C31823
:1020C000C318E420C318E318A318A210C318E4200F
:1020D000C318C318C318C318A318A210C318E31851
:1020E000C318E318A318E31804212421E420E318FB
:1020F000A318E420E318C318C318C318E318E42096
:10210000C3180421042124210421E42004212529C9
:1021100024210529242145292421252904210421BC
:102120002421663124214529242145298631452948
:102130000421242125290421E42024212529863174
:1021400065296631242125296631863145294529AD
:102150008631863186318631E739E841C739A7397A
:10216000652986316631C7398631C7396631A73965
:102170008631C7390842A631C739A631A739084286
:102180000842E84128422842E8410842E739C73975
:10219000E84108422842A739C7392842294A28423B
:1021A000E8410842294A494A6A52494A6A52294A38
:1021B000CB5AAA52CB5A694A0C63AA52694A8A522C
:1021C000EC628A52CB5AAA528A528A52EB5A2C6338
:1021D000AB5A0C636E73CB5AAB5A4D6BAB5AEB5A7E
:1021E0000C63EC624D6B4D6B4D6B4D6BAE73318C74
:1021F0004D6BEF7B4D6B4D6B318CCF7B4D6B8E738D
:10220000CF7B1084CF7BAF7B2C63CF7B518C7294C0
:10221000F4A4D39C72943084B39C14A5F39CD39CF7
:10222000B2947294F39CD39CD39CD39C76B514A5A2
:1022300055AD14A514A5D39C14A534A514A576B545
:10224000D7BD35AD55AD14A576B5B6B5D7BD76B508
:10225000B6B518C618C659CE59CE96B5F7BDB7BD96
:10226000D7BD17BE9AD638C618C638C6F8C5F8C541
:1022700038C639CE39CE39CE79CE59CE39CE59CEAF
:10228000DBDEDBDEDAD69AD6BBDEBAD6DBDE1CE7D7
:10229000BAD679CEFCE6DBDE3CE7FCE6FBDE3DEFC2
:1022A000FBDEFBDE5DEF1DEF1CE7FBDE5DEF5DEFB0
:1022B0001CE75DEF3DEF1CE73CE79EF77EF75DEF27
:1022C0007EF77DEF9EF77DEF7EF73CE77EF79EF78A
:1022D0005DEF3CE7DFFF9EF75DEF9EF79EF75DEF5A
:1022E0005DEF5DEF5DEF7DEF7EF7BEF73DEF9EF7B3
:1022F000BFFF9EF73CE7BFFF9DEF9EF7DFFF7EF736
:102300007DEF5DEF9EF77DEF7EF75DEF7DEF3DEFBB
:102310003DEF7DEF1CE7BFFF1CE73CE7FCE63CE739
:102320003DEFDBDEDBDEDBDEFCE61CE7DBDE1CE7B5
:102330003CE71CE7FBDE1CE73CE71CE71CE7BAD6E2
:10234000BBDEFBDEBBDE9AD6DBDE9AD69AD659CE52
:10235000BAD6BAD67AD6BAD6DBDEDBDEFBDE59CE0B
:102360007AD6BAD639CE59CE18C639CE59CE39CE4C
:1023700038C639CEF7BDF8C5D7BDF7BD59CE39CE71
:102380009AD6F8C5D7BDB6B5621061084108610894
:1023900041084108210841086108210841086210EC
:1023A00041082108610861082108610841086108A5
:1023B000410862106108410841084108610841086C
:1023C0004108200041086210410842106108821053
:1023D000410861084108410862106108610821084C
:1023E000821082108210A318410862108210A2107D
:1023F00041086210621041084108610841086210FA
:1024000041088210A3186108A318A3188210A3180A
:10241000A210A2106210821041088210410882109E
:1024200082108210610862108210A318810841088E
:102430008210610862108210A210A318821082100C
:10244000A210A3186210410882108210821082101C
:102450008210A318610882108210C318A318C31831
:10246000C318A210A3188210A210A318C318A3188F
:102470008210E318A318A210A318A2108210C31888
:10248000A318C3180319C318E318A318C318E31833
:102490000421C318C318C318E318C318A318A3183A
:1024A000C318C318C318A318E42004212529E3186E
:1024B000C318C318E420E318C318C318C3180421B1
:1024C000E420E318E4200421252904210421242107
:1024D0002529042104210421452924212529042119
:1024E0002529242166312529452925296529663193
:1024F0004529042104212421042104212529242102
:102500006631652986312529442166318631452980
:1025100065298631A6318631A739E7390842C7399E
:10252000A739652966316529C739A631C7396529B3
:10253000C7398631E739294AA739A739C739C73991
:1025400008420842E739084208420842E841E739B0
:10255000E739084228422842C739C739494A494A17
:10256000294A08422842494A8A52694A8A528A526A
:102570008A52EC62CB5ACB5A8A520D6BAB5A694ADB
:102580008A52EB5A8A52AB5AAB5A694A8A52EC6267
:102590002D6BAA522D6B8E73CA52CB5A6D6BCB5AD0
:1025A0000C634D6B0C634D6B4D6B4D6B4D6BEF7B4B
:1025B00010846D6B10844D6B8E73518CAF7B6D6B83
:1025C000AF7B1084CF7B1084AF7B4D6B3084718CDC
:1025D0009294F4A4D39C92943084F39C14A5F4A414
:1025E000D39CB294729414A5F39CD39C34A596B555
:1025F00034A576B534A514A5F4A414A534A514A562
:10260000B6B5D7BD55AD75AD55AD96B5B6B5D7BD5B
:1026100096B5B6B539CE18C659CE7AD696B518C67F
:10262000D7BDD7BD39CEBAD639CE38C659CEF7BD0B
:1026300018C659CE38C659CE59CE9AD659CE59CE8B
:102640009AD6FBDEDBDEBAD69AD6FBDEBBDEDBDE5D
:102650003CE7BBDE7AD6FBDEDBDE5DEFFCE6FBDED5
:102660003DEFFBDE1CE75DEF1CE71CE7FCE67DEFC2
:102670003DEF1CE79DEF3DEF1CE73DEFBEF79EF7FA
:102680007DEF7EF77EF79EF75DEF7DEF3DEF7DEF0F
:102690007EF75DEF5DEFDFFF7EF75DEF9EF79EF764
:1026A0005DEF7DEF5DEF5DEF7DEF7DEFBEF73DEF21
:1026B000BEF7DFFF7DEF3CE7DFFF7EF79EF7BEF75B
:1026C0007EF75DEF5DEF9EF77DEF5DEF3DEF5DEF38
:1026D0003CE73DEF5DEF3CE79EF73DEFFBDE1CE79F
:1026E0001CE73CE7DBDEDBDEDBDEFBDEFBDEBBDE4E
:1026F0001CE73DEFFCE6FBDE1DEF1CE7FCE61CE7FC
:102700007AD6DBDEDBDEBAD69AD6DBDE7AD679CEB7
:1027100059CE9AD6BAD659CE9AD6DBDEDBDEDBDED0
:1027200059CE59CEBAD618C659CE18C618C659CEE3
:1027300038C639CE38C6D7BDF7BDB7BDF8C558C6FF
:1027400038C679CEB7BDB7BD8210621041084108C6
:102750004108410841084108410861084108410811
:1027600061084108210861086108210861084108E1
:1027700062106108410861084108210861084108A8
:10278000410841084108410882104108621061086F
:102790006210210861084108410882106210610836
:1027A0002108A2108210A21082104108821082100B
:1027B00082106108610862106108410841086108DF
:1027C00062104108A21082106210C318A210821079
:1027D000A318A210A2106210610862108210610892
:1027E00082108210621061088210A210A318621079
:1027F0004108821061086210A210A210A318821072
:10280000A210A318A21062106108A31882108210EF
:102810008210A2108318610882108210C318A210BF
:10282000C318E318C318A2108210A318C318A2106B
:10283000A3188210E318A318A210A318A3188210DB
:10284000C318C318C318E420E318C318C318C31867
:10285000E4200421C318C318C318E318A210A31856
:10286000C318E318E318C318C318E4202421242153
:10287000E420E318C318E420E318C318E420C318C5
:102880000421E318E4200421242125290421042122
:102890000421242124210421042145292529452915
:1028A00004214529452965294529252945298631B8
:1028B000652945292421252924210421042145298C
:1028C0004529863145298631252965298631863174
:1028D00045296631A7398631A631A7390842E7393B
:1028E000A739A631663186318631C739C739C7392C
:1028F0006529C7398631C7390842C7398631C73992
:10290000E739294A08420842494A0842084208422F
:10291000C739E841294A2842E841C739C73928421E
:10292000694A08420842294A494A8A52494A8A520F
:10293000494A8A52CB5A0C63AA52AB5A0C63AA5228
:102940008A52AB5AEC62AA52EB5ACC628A52AA5211
:102950002C632D6BAA524D6B6E73AA52EC626D6B99
:10296000EC622C632D6B4D6B4D6B4D6B6E734D6B31
:102970001084F0836E7310842D6BCF7B718CCF7BB2
:102980006D6BCF7B718CCF7B1084AE736E73718C4B
:102990009294B29414A592949294518C14A514A577
:1029A000F4A4F4A49294B294F4A414A5F39C76B580
:1029B00096B555AD76B534A534A514A535AD34A579
:1029C00035ADB7BDD7BD76B575AD76B5B7BD96B5E6
:1029D000D7BDB7BDB7BD59CE38C659CE79CEB6B57D
:1029E00018C6F7BDF8C559CEBBDE39CE39CE59CEA3
:1029F000F7BD39CE79CE39CE59CE59CE9AD638C612
:102A000059CEBBDEFCE6FBDEBBDE9AD6FCE6DBDEA7
:102A1000DBDE3CE7BAD6BBDEFBDEFCE65DEF1CE7A7
:102A20001CE73DEFFCE65DEF5DEF3CE71CE73CE7B4
:102A30007DEF3DEF1CE79EF73CE73DEF5DEFBEF716
:102A40009EF77DEF7EF77DEF9EF77DEF5DEF5DEF0B
:102A50009EF77DEF5DEF5DEFDFFF9EF75DEF9EF789
:102A60009EF73DEF7DEF5DEF5DEF7EF77EF7BEF702
:102A70003DEFBEF7DFFF7EF73DEFBEF75DEF9EF760
:102A8000BEF75DEF5DEF7DEF7EF75DEF3DEF5DEF54
:102A90003CE73DEF1CE75DEF5DEF7DEF3DEFDBDEFB
:102AA0001CE71CE7FCE6DBDEDBDEDBDEFCE6DBDE78
:102AB000BBDEFBDE3CE7DBDEDBDE3CE7FBDEFBDE3A
:102AC000FBDE79CEBBDEBBDEBAD69AD6BBDE79CED4
:102AD00059CE59CE7AD69AD659CE9AD6DBDEDBDEDF
:102AE000BAD65AD659CE9AD618C618C618C618C617
:102AF00039CE18C638C619CEB6B5D7BDB6B518C6C4
:102B000039CE18C659CEB6B5410882108210410898
:102B10006108410841084108210841086210410844
:102B20006108621020004108621041084108410814
:102B3000410862106108621061084108410861089B
:102B400041084108410821084108821041086108F4
:102B50006210610841084210410841088210621069
:102B600061084108A2106210A31882104108821067
:102B70008210821041086210410861084108410832
:102B8000621061084108A318A2106108C318A318B5
:102B90008210A318A21082108210610862106210C5
:102BA00061088210A210821061088210A210A3187E
:102BB00061086108621061088210A318A210A210B7
:102BC0008210A210A210821062106108A318821055
:102BD00082108210A210A31861088210A210C318DC
:102BE000A318E420C318C318A318A210A210C31876
:102BF000A210A318A210C318A318A210A210A31801
:102C0000A210C318A318E318E420E420C318C318C3
:102C1000C31804210421C318C318C318C420A21068
:102C2000C318C318C318E420C318C318E420042130
:102C30002421C420C318E420E420E318C318E318B7
:102C4000C3182421E420E318042124212421E420B2
:102C5000042125292421252904212529652925291F
:102C60004529042125296529452945292421452966
:102C700086314529252904212529242104210421DF
:102C80004529452986316631863145298631863187
:102C9000863145296529A7396631A631A7392842E9
:102CA0000842C7398631863186318631A631C73927
:102CB000A7396631E739C739E8410842E739A7390A
:102CC000C739E84128420842E841294A08422842D7
:102CD0000842E739E841494A494AE739E8410842A8
:102CE000494A6A52294A2842494A6A52AA52494ADA
:102CF000CB5A6A52CB5ACB5A2D6BAA52CB5A0C6381
:102D0000AB5AAA52CB5AEB5AAB5ACB5ACB5A8A522D
:102D1000AB5A4D6B4D6BEB5A6E736E73AA520C63CC
:102D20004D6BEB5A4D6B2D6B6D6B6E736D6B8E73C4
:102D30006D6B518CCF7BAE73EF7B2D6BF083718C01
:102D4000CF7B8E73CF7BB39CCF7B3084AF7B8E7376
:102D50009294B39CF39C35ADB39C718C518C14A5AB
:102D600034A534A514A59294D39CF4A414A5F39C83
:102D7000B7BD96B575AD96B535AD55AD14A535ADA8
:102D800054A555ADD7BDD7BD96B596B596B5D7BDAB
:102D9000B7BDB6B5F7BDF7BD59CE59CE7AD659CE27
:102DA000D7BD39CEF7BD18C679CEBAD659CE59CED1
:102DB0007AD6F7BD59CE7AD659CE79CE7AD6BAD64A
:102DC00059CE59CEDBDEFCE6FBDEBAD6BBDE1CE715
:102DD000DBDEFCE63CE7BBDEDBDEFBDE1CE75DEFBB
:102DE0001CE73CE73CE7FCE65DEF7DEF3DEF1CE7D1
:102DF0005DEF7DEF5DEF3DEF9EF75DEF5DEF7EF701
:102E0000BEF79EF75DEF7EF77EF77EF77DEF5DEF15
:102E10005DEF9EF75DEF5DEF7DEFBFFF7DEF7EF72E
:102E20009EF7BEF73DEF7DEF7EF75DEF7DEF7EF71E
:102E30009EF75DEFBEF7DFFF5DEF5DEFBEF73DEFA5
:102E40009EF79EF75DEF1CE77EF77DEF5DEF1CE7D9
:102E50003DEF1CE73DEF3CE71CE75DEF5DEF3DEF2D
:102E6000BAD61CE71CE7DBDEBAD6DBDEBBDEFBDE58
:102E7000BAD6DBDEFCE63CE7DBDEDBDE1CE7DCE6CD
:102E8000FBDEBBDE79CEBBDE9AD69AD69AD69AD630
:102E900059CE39CE79CE9AD67AD659CE9AD6DBDEAD
:102EA000BBDE7AD659CE39CE7AD638C618C6F8C522
:102EB00018C638C6F8C518C618C696B5D7BD96B593
:102EC00039CE18C618C618C66108410862108210AB
:102ED0004108621041084108410841086108410861
:102EE0004108610862102108610862104108410828
:102EF00041086108621061086210410841084108F8
:102F00006210210841084108410841086108410850
:102F10006108621061084108610861084108821077
:102F2000621041084108A3186108A21062106108EC
:102F300082108210821041088210410862106108DC
:102F40004108621061086108A31882108210C3183A
:102F5000A210A210A31882108210621061088210C1
:102F60006210821082108210621062108210C318E8
:102F7000A21062106108821062106108A318C318C1
:102F8000A3186210A318A318A21062106108A31856
:102F9000A210621082108210A31862108210A3186F
:102FA000C318C318E318C318C3188210A318A318B2
:102FB000C318A210A318A318C318C318A318C210CB
:102FC0008210A210C318C3180421E3180421C318E7
:102FD000C318C3180421E420C318C318E318C31886
:102FE000A318C318C318C318E318C318E31804219F
:102FF00004210421E318E318E420E318E318C318BC
:10300000E420E3180421E4200421042125292421BB
:10301000E4200421252924212529042145294529A5
:103020004529452904214529663145296631242150
:103030004529A63166314529242145292529042120
:103040000421452986318631863186312421863115
:103050006631863145298631C7398631C739C73946
:103060000842E841C739863186316631C739863131
:103070000842A6318631A739C7390842E8410842DB
:10308000C631E8410842494A08420842494A0842D2
:1030900008420842E739E8412842494AC739C73956
:1030A0000842494A694A2842294A494A8A52AB5A3F
:1030B000494ACB5A694ACB5ACB5A2D6B8A520C6378
:1030C0000C638A52CB5AEC62EB5ACB5AEB5ACB5A6E
:1030D000AA52EB5A4D6B2D6B0B5B8E734D6BCB5A1B
:1030E0004D6B4D6B2C636E732C636D6B6E736D6BE0
:1030F0006E738E739294AF7BEF7BCF7B4D6B30847E
:103100005294CF7BAF7BEF7BD39CF083518CAE731B
:10311000AF7BD39CB294F4A434A5F4A4929492947B
:1031200014A534A514A514A59294F39C14A535AD4B
:1031300014A5D7BD96B576B5B6B555AD55AD55AD5B
:1031400055AD34A576B5D7BDD7BDB7BD96B5D7BDFE
:10315000D7BDD7BDB7BDF8C538C659CE79CE7AD65A
:1031600039CEF7BD39CE18C639CE9AD6BBDE79CE68
:1031700059CE7AD6F8C579CE7AD679CE7AD69AD67D
:10318000BAD659CE59CE1CE71CE7FCE6BAD6BBDE50
:103190001CE7DBDE1CE71CE7BAD6FCE61CE73DEFCC
:1031A0005DEF3CE75DEF3CE71CE77DEF5DEF3DEF5A
:1031B0001CE75DEF7EF75DEF3DEF9EF75CE75DEFAF
:1031C0007EF7BFFF9EF75DEF7DEF9EF77EF77DEF09
:1031D0003CE75EF79EF75DEF5DEF9EF7BFFF7DEF8B
:1031E0007EF79EF79EF75DEF5DEF5DEF5DEF7DEFA4
:1031F0009EF77DEF5EF7BEF7BFFF3CE77EF79EF7D9
:103200001CE79EF77EF75DEF1CE75DEF5DEF5DEF7E
:10321000FBDE5DEF1BDF3DEF3CE7FCE67DEF1CE7EF
:103220003DEFBAD61CE73CE7BBDEBAD6BBDEDBDE41
:10323000FCE679CEBBDEFCE63CE7DBDEDBDE1CE752
:10324000DBDEDBDE9AD679CEBBDE79CE9AD69AD695
:103250007AD659CE18C679CE7AD679CE19CE9AD6E4
:10326000DBDEBAD679CE59CE59CE59CE18C6F7BDC7
:10327000F7BD18C638C6D7BD18C6F7BD55ADD7BD02
:1032800075AD39CE18C618C66108410861086210CC
:103290008210400062104108610841084108621034
:1032A000610841086108610821086108621041084D
:1032B000610841086210610862106108621021080B
:1032C000410861084108610841084108410862104D
:1032D000410862106210410861084210610841080B
:1032E0008210821041086108A3188210C318610877
:1032F00062108210A2106210410882104108621010
:1033000061084108821041088210A2106210A210C8
:10331000C318A3188210C3188210A21062104108AB
:10332000821061088210A210A2106108621082103F
:10333000C318821062106210810862108210A210FD
:10334000C318A2108210A318C2108210821082101B
:10335000A31882108210A2108210A2108210821074
:10336000C318C318A318E318C318C3188210A210F7
:10337000A318C318A2108210C318A318C318A21050
:10338000A318A318A318C318C318E420E318E42053
:10339000C318E318E3180421E420C318C318E31882
:1033A000C318A318C318C318C318E420A318E3183C
:1033B000042125290421E318C3180421E420C3189B
:1033C000C318E420E3180421C3180421042125298B
:1033D0002421E318242125294529242104214529D4
:1033E0004529452945292421452965292529652976
:1033F0004529663186316529252925294529242134
:1034000024212529452986316631863166314529B1
:10341000A6318631863165298631C7396529A739B4
:10342000E73928420842C7398631A6316631C739A3
:10343000863108428631A739C739E7392842E7394A
:10344000E841C739E7390842494AE8412842294A50
:10345000084228420842E8412842294A494AC739D5
:10346000C739294A694A494A294A494A494A8A522E
:10347000AA52494ACB5A8A52EC62EB5A2C638A52BE
:103480002C630C638A52CB5A0C63CB5AEB5ACB5A3F
:10349000AB5AAB5A0C636E732D6B4D6B8E732D6BE9
:1034A000CB5A6E732D6B4D6B8E736E738E73AE73C2
:1034B0006E736D6BAF7B9294AF7B3084CF7B6E73FA
:1034C000718C318CCE73CF7B1084B294318C518C43
:1034D000AF7BEF7BF4A4F39C14A535ADF39CB39CB8
:1034E000D39C14A514A534A514A5B39C34A514A588
:1034F00034A535ADF7BDB6B596B5B7BD76B575ADE6
:1035000076B575AD35AD96B5F7BDB6B5D7BD96B543
:10351000F8C5F7BDF7BDD7BDF8C559CE59CE7AD697
:103520009AD638C618C639CE18C659CEBBDEBAD61A
:103530007AD679CE79CE39CE9AD67AD699CE7AD62F
:103540009AD6BBDE7AD679CE1CE71CE71CE7BAD642
:10355000DBDE1CE7FCE65DEF1CE7DBDE1CE71CE7BF
:103560005DEF5DEF3DEF3DEF3DEF3DEF7DEF5DEF5B
:103570003DEF3DEF7DEF7DEF5DEF5DEF9EF75DEFA2
:103580005DEF9EF7BEF79EF75DEF7DEF9EF77EF74E
:103590007DEF1CE77DEF9EF75DEF5DEFBFFFBEF7B0
:1035A0005DEF9EF77EF79EF75DEF5DEF7DEF5DEFE0
:1035B0007EF79EF73DEF7DEFBFFFBEF71CE79EF75E
:1035C0007DEF1CE79EF75DEF5DEF1CE75DEF3CE7ED
:1035D0003DEFFBDE3DEFFBDE1CE73DEFFBDE9EF744
:1035E000FCE61CE79AD6FCE61CE7BAD69AD6BAD611
:1035F000DBDEFCE679CEBAD6FCE6FCE6DBDEDBDE23
:10360000FBDEDBDEDBDE7AD659CEBAD67AD679CED1
:103610009AD659CE59CEF8C579CE7AD659CE18C693
:103620009AD6BBDEBAD659CE59CE59CE18C618C6D0
:10363000F8C5D7BDF8C518C6D7BD18C6B7BD55ADB6
:10364000D7BD76B538C6F8C54108610821086108BC
:103650008210621041086108410841084108410890
:103660006210410842106108621020006210610877
:103670004108621041088210610862106108610807
:103680004108610862104108410841084108621080
:1036900061086108610862106108410862106108F0
:1036A00061088210821041088210A2108210A210BC
:1036B000410862108210A21061084108821041087E
:1036C000621061084108621061088210A31862103C
:1036D000A210A318A2108210A318A21082108210A8
:1036E00041088210621082108318821062108210CA
:1036F0008210C3188210610882108210821082101A
:10370000A210C318A2108210C318A3188210610857
:103710008210A31882108210A2108318A2108210A7
:103720008210C318C318C318E420C318C31882102A
:10373000C318C318C318A3188210C318A210A31863
:10374000C318C318A210A318C318E3180421E31860
:10375000E420C318E318E4200421E318C318C318B5
:10376000E420C318A210E318C318C318E318C31841
:10377000E42004212421E420E318E420E3180421B8
:10378000C318C318C31804210421E42004212421F0
:1037900025292421E420252945292529242104211E
:1037A00065294529452925292529452986312529A0
:1037B000452945298631A6316631242145294529E7
:1037C000252904212529452986318631A6316631EE
:1037D0004529A631863166316529A739C739863131
:1037E000C739E8410842E739C7398631A739652921
:1037F000E841A63108428631C739A739E841494A2C
:10380000E7390842E739E8412842294AE739294A95
:10381000294A0842294A08420842294A494A294A6B
:10382000E739C739494A6A52494A4842494A6A52BD
:10383000AA52AB5A8A52CB5A8A52EB5AEC622D6B7F
:10384000AA522D6B0C638A52CB5A2C63CB5AEC6272
:103850000C63AA52CB5A2C636E730C636D6BAF7BF7
:103860000C630C63AE734D6B4D6B8E736D6BAF7BE6
:10387000AF7BAE73AE73F08392948E73318CAE7364
:10388000AE739294318CCF7BF083518C7294518CB7
:10389000518CCF7B518CF4A414A535AD34A5F39C89
:1038A000B39C14A555AD35AD14A5F4A4D39C55AD6A
:1038B00014A555AD56B5F7BDB7BDB6B5B6B596B5F9
:1038C00076B596B575AD55ADD7BDF8C5D7BDF7BDC5
:1038D000B7BD18C618C618C6F7BDF8C579CE7AD6D2
:1038E0009AD6BAD618C659CE59CE38C679CEDBDEAE
:1038F000BAD69AD67AD659CE59CEBAD67AD6BAD6BA
:103900009AD6BAD6BAD69AD69AD63DEF3CE7FCE616
:10391000DBDEFBDE1CE71CE75DEFFBDEDBDE3CE70E
:103920001CE77DEF5DEF5DEF3CE73DEF5DEF7EF780
:103930005DEF5CE75DEF9EF77EF75DEF7EF77DEF75
:103940005DEF3DEFBEF7BFFF7EF77DEF5DEF9EF7CA
:103950007EF77DEF1CE77EF79EF75DEF5DEFDFFF03
:10396000BEF75DEF9EF79EF79EF77DEF5DEF3DEFB3
:103970005DEF5DEFBEF71CE77DEFBFFF9EF7FCE656
:10398000BEF73DEF3CE77EF73CE75DEF1CE75DEF00
:103990001CE73CE7DBDE1CE7FCE61CE73CE7DBDE84
:1039A0009EF7FBDEDBDEBBDEFBDE1CE79AD69AD69B
:1039B0009AD6DBDEDBDE59CEBAD6FCE6DBDEBBDE3A
:1039C000DBDEDBDEDBDEDBDE59CE79CE9AD67AD6E5
:1039D00059CE9AD638C659CEF8C579CE7AD638C6D9
:1039E00038C69AD6BBDE9AD638C639CE59CEF7BD80
:1039F00018C6F7BDB7BD18C6F8C5D7BD18C676B589
:103A000055ADB6B596B538C64108410862102108D3
:103A10008210821061084108621061084108610843
:103A200041088210410841086210410841086210B3
:103A30006210400062104108621061086210610863
:103A400042104108610862104108410841084108DC
:103A5000621061086210610862106108621041081A
:103A60006210610882106108410882108210821081
:103A70008210410882108210A3186108621062103F
:103A8000610862106108410882104108A210A2106A
:103A90006210C318A318A318A210A318A2108210B2
:103AA0006210610882106108A210A31882106108D8
:103AB0008210A210C3186210610882108210621076
:103AC000A318A318C318A3188210C318A318821030
:103AD0006210A210A21082108210A318A210A210CD
:103AE0008210A210E420C318C318E318C318C31827
:103AF000A210A318C318C318C3188210E318A31880
:103B0000C318C318C3188210C318C318E3180421BC
:103B1000E420E318C318E42004210421E420C3189E
:103B2000C318E318C318A318E318C318E420E31854
:103B3000C318042124212529E318E4200421E318D3
:103B4000E420C318E420C31804210421E31824212D
:103B500025294529042104212421452945292529F0
:103B600004216529452965294529452945298631A5
:103B70004529452965298739A631663125294529F1
:103B800065292529242145294529A6316631C631D3
:103B900045294529A739A63186316631A631A63196
:103BA000A631C739294A294AE739C7398631A631AA
:103BB0006631C739A73908428529C739C739E73976
:103BC000494AE841E841084208422842294AE7397F
:103BD0002842284208422842E841073A294A494AED
:103BE0000842E739C739494A6A52294A494A494A83
:103BF0008A528A528A52AA52AB5AAA52EB5A0C6380
:103C00000C63AA524D6B0C63AA52CB5A2D6BCB5A44
:103C10000C630C63AA52CB5A6D6B8E730C638E735C
:103C2000AE73EC620C63AE734D6B6E73AF7B8E73D1
:103C3000AE73AF7BAE73AF7B518CB294AE73318CED
:103C40006E73EF7BB39C518CCF7B3084B294518CDC
:103C50009294518CCF7B929414A514A575AD35AD7B
:103C6000F4A4B29435AD55AD55AD34A5D39CB39CF9
:103C700096B555AD55ADB6B5D7BD96B5D7BDB7BDA3
:103C8000B6B596B5B7BD96B555ADF7BDF8C5D7BDB8
:103C9000F7BDD7BD18C618C618C618C638C67AD616
:103CA00079CE9AD6BBDE18C659CE59CE39CE9AD621
:103CB000FCE6BAD69AD69AD659CE79CEBBDE9AD63B
:103CC000BBDE9AD6DBDE9BDE9AD6BAD65DEF3CE74A
:103CD000FCE6DBDE1CE7FBDE3DEF5DEFFCE6FBDE3A
:103CE0003DEF1CE77EF75DEF5DEF5DEF3CE77DEFBD
:103CF0007EF75DEF3DEF5DEF9EF77DEF5DEF9EF7A9
:103D00007DEF5DEF5DEFBEF7BFFF7DEF5DEF5DEF38
:103D10009EF79EF75DEF3CE77EF79EF75DEF5DEF68
:103D2000DFFF9EF75DEF9EF79EF77EF77DEF5DEF7D
:103D30003CE73DEF5DEF9EF7FCE67DEFDFFF7DEFBB
:103D4000FCE6BEF71CE73CE77EF73CE73CE71CE7F8
:103D50003DEF1CE71CE7DBDEFCE6FBDEFCE61CE7D8
:103D6000FCE67EF7FBDEBAD6BBDEDBDE1CE77AD6EE
:103D70009AD69AD6DBDEBAD65AD6BAD61CE7BAD6C7
:103D8000DBDEDBDEBBDEBAD6DBDE18C679CE7AD66A
:103D900079CE59CE9AD618C618C6F8C579CE59CE5E
:103DA00018C618C69AD69AD69AD618C638C659CE04
:103DB000D7BD18C6D7BD96B518C6B7BDF7BD18C6CE
:103DC00034A576B596B5B7BD21084108410861080C
:103DD00020008210821062104108621041084210D7
:103DE00061084108821041084108821041084108D9
:103DF0008210610841086108610882106210610840
:103E000062106108410862104108610841084108D8
:103E10004108621061086210610862104108621076
:103E200061086210621082106210410882108210D4
:103E3000A2108210410882108210A3184108610864
:103E40006210610862106108621082106210A3188B
:103E5000A2108210C318A210A3188210A318A210D7
:103E6000821062106210821062108210C3188210D9
:103E700062108210A210C318821062108210821089
:103E80008210C318A210C318A210A318A210A3185E
:103E900082106108A318A31882108210A318A31817
:103EA0008210A210A318C318A318C318E318C420C3
:103EB000A210A318A210C318A210A3188210E3180E
:103EC000A318C210C318C318A210C318C318C3186C
:103ED00004210421E318C318E42024210421C31879
:103EE000C318C318E420A318C318C318C318E420C8
:103EF000E318C318042124212529E318E318E4203A
:103F0000E318E318C318E420C31824210421042172
:103F1000252925294529042104214529452924212C
:103F20002529242166314529652925294529652921
:103F30008631663125296529A631863165292529ED
:103F4000452965292529042145294529A631863198
:103F5000C73965296631A631A73986318631C73917
:103F6000A739A631C7392842294AE739C7398631E6
:103F7000A6318631C739E739E8418631E739C73993
:103F8000E841494AE739C73908420842294A2842E4
:103F9000E841494A294A294A284208422842494ACE
:103FA000694A08420842E841494AAA52494A694ACC
:103FB0006A52AA52CB5A8A52EC62AB5ACB5AEC6282
:103FC0004D6BEC62CB5A2D6BEC62AA52CB5A0C6350
:103FD000CB5A0C632D6BAA52EC626E73AE730C63FA
:103FE000AF7BAE73EC622D6BCF7B6D6B8E73AE735C
:103FF0008E73CF7BAF7BAE73AF7B72949294EF7B6B
:10400000718C8E731084B294318CEF7B318CD39C85
:10401000318CB294318CCF7BD39C34A535AD75AD4A
:1040200055AD14A5B39C34A575AD76B555ADF39CCF
:10403000B39C75AD55AD76B5F7BDF8C596B5D7BD92
:10404000B6B5D7BD96B5D7BDB6B596B5F8C518C641
:10405000F7BDF8C5F7BD39CE18C639CE59CE38C62A
:104060009AD69AD69AD6BAD618C69AD659CE59CED4
:10407000BAD6FCE6BBDE9AD6BAD659CE9AD6DBDEE5
:104080009AD6BBDEBAD6DBDEBAD6BBDEDBDE5DEFB0
:104090003CE7FCE6FBDE3DEF1CE73DEF7DEFFCE699
:1040A000FBDE3DEF3CE79EF77DEF5DEF5DEF3DEF23
:1040B0009EF79EF75DEF5DEF7DEF9EF75DEF5DEFA5
:1040C0009EF75DEF5DEF7DEFBFFFBFFF7DEF5DEF23
:1040D0007DEF9EF77EF73CE73DEF7DEF7EF77DEFCE
:1040E0007DEFDFFF9EF75DEF9EF7BFFF5DEF7EF791
:1040F0005DEF1CE73DEF5DEF7DEFFCE67EF7DFFF58
:104100005DEF1CE77EF7FCE63CE75DEF1CE71CE794
:104110001CE73CE7FCE6DBDEFBDEDBDEFBDEFCE691
:10412000FBDE1CE73DEFFCE69AD6DBDEDBDEDBDE0A
:1041300079CE9AD69AD6DBDE59CE79CE9AD61CE7BE
:10414000BBDEBBDEDBDEBAD69AD6BBDE18C659CEE6
:104150007AD659CE39CE9AD6F8C5F7BD18C659CEFB
:1041600059CED7BD38C6BAD67AD679CE18C618C6B3
:1041700059CED7BDD7BDD7BD96B518C6B6B5D8C52B
:10418000F7BD14A575AD76B5410821084108610851
:10419000621041088210821061086108610861089C
:1041A0006210410861086210410841086210400035
:1041B00041086210610841086210610862106210D3
:1041C00082106108410841088210410861084108D5
:1041D000410841086210610862106108821061089C
:1041E0006210610861086210A21061084210A210FA
:1041F0006210A318821061088210A2108210610858
:104200006210610862106210610862108210610819
:10421000A31882108210C318A210A318A210A21013
:10422000A31882106108821082106108A210A318DE
:10423000821062108210A318A2106210610882100E
:1042400082108210C318A318C3188210A318C318B1
:10425000A21062108210A210A3188210A210A3183C
:10426000C31882108210C318C318C318E318C318E8
:10427000E318A318A318A318C318A318C318A210EF
:10428000E318A318C318C318C318A318C318E31856
:10429000E420E4200421C318E318E42004210421CD
:1042A000C318C318C318E318C318C318E318C318F6
:1042B000E420E318E420042104212529C318E42084
:1042C0000421E420E318E318E420E318252904215D
:1042D0000421242145294529042104214529452972
:1042E0004529042145296631652966314529652915
:1042F00066316529663145296631A739A6316631AF
:104300004529452945292421252965296631A631D4
:104310008631A73965298631A631A63186318631A5
:10432000E7398631C739E739294A0842E841A739D0
:10433000A7398631A631A739E739C7398631E8412F
:10434000C7390842494A294AC73928420842494AD6
:104350002842E841494A2842294A494A0842294A0A
:10436000694A4A52073AE8410842694A8A52494A28
:104370006A528A52AB5ACB5A694A0C63AA52EC620F
:10438000EC626D6BEB5AEC624D6B0C63CB5A2C6399
:104390000C63EC620C630C63AB5A0B5B8E73AF7BEC
:1043A0004D6BAF7BAE73EB5A4D6BAF7B8E73CF7B98
:1043B000AF7BCF7BEF7BCF7BCF7BCF7BB294529415
:1043C000F083518CAF7B518CD39C318CEF7B718C03
:1043D00014A5518CD39C518CCF7BF39C34A535AD67
:1043E00096B555AD35ADF39C55AD55AD96B555ADBE
:1043F00014A5F4A475AD75AD76B518C6F7BDB7BDF7
:10440000D7BDB7BDF7BDB7BDD7BDB7BDD7BD18C602
:1044100018C618C6F8C518C639CE18C639CE79CE12
:1044200059CE9AD69AD6BBDEBAD639CE9AD659CEBE
:104430007AD6BAD61CE7DBDE9AD6BAD659CEBBDE20
:10444000DBDEBAD6DBDEBBDEFBDEBBDEBAD61CE7CC
:104450005DEF3DEFFBDE1CE73DEF1CE75DEF7DEF21
:10446000FCE61CE75DEF3DEF9EF77EF77DEF5DEF2D
:104470003DEF9EF77DEF5DEF3DEF7DEF9EF75DEF4A
:104480005DEFBFFF5DEF5DEF7EF7BEF7BFFF5DEF56
:104490005DEF7EF79EF77EF71CE77DEF9EF77DEFE1
:1044A0007EF77EF7FFFF9EF75DEF7DEFBEF75DEFD6
:1044B0005DEF3DEF1CE73CE73DEF5DEFFBDE7EF798
:1044C000BEF73DEF3CE75DEFDBDE3DEF3DEF1CE788
:1044D0001CE71CE71CE7FCE6BBDEFBDEDBDEFBDEED
:1044E000FCE6DBDE3CE71CE7FBDE79CEBBDEDBDE99
:1044F000BBDE79CE7AD69AD6DBDE39CE79CE9AD6A5
:10450000FCE69AD6BAD6DBDE9AD69AD69AD618C6E2
:1045100059CE79CE59CE38C679CEF8C5D7BD39CE69
:1045200059CE39CED7BD18C6BAD67AD639CE38C606
:1045300018C618C6D7BDD7BDB7BD96B5F8C5B6B5B0
:10454000D7BDB7BD14A576B54108410820002108A4
:10455000610841084108A21082104210621041080F
:104560004108621061086108621041086108621028
:104570002108621082104108410861086210810818
:1045800062108210610841084108821041086210DF
:1045900041084108410882106108621061086210F8
:1045A0006108621062106108621082106108621076
:1045B000A2108210A210621062108210A318821042
:1045C0006108621061088210621041088210621056
:1045D0006108C31882108210C318A318A210A31870
:1045E0008210A21082106210821082108210A31812
:1045F000A210821082108210C318A21082108210A2
:104600008210A210A210C318C318C3188210A210DF
:10461000C318A21082108210C318A2108210A21018
:10462000A210A3188210A210C318C318A318E42064
:10463000C318C318A210C318C318E318A318A318EB
:10464000A318E318C318C318C318A318A318C318D2
:10465000C318042104210421C318E42004210421E7
:104660000421C318C318E420E318A318C318E318DF
:10467000C318E420E318E420042124210421E318D2
:10468000E4200421E420E318E420E420E3182529B1
:1046900004212529242125294529042124214529CE
:1046A0004529452924214529663165296631452951
:1046B000452986316529663165298631A6318631DD
:1046C0004529452986316529252924214529663131
:1046D000A739A631A7394529A739A739A63187397E
:1046E0008631E8418631C739E84128420842E73936
:1046F0008631C7398631C739A7390842C739A6314B
:10470000E739E8412842294A4842E8412842294AF3
:10471000494A08420842494A294A494A494A2842DC
:10472000494A6A528A5208420842494A6A52AA527F
:10473000694A8A52AA52EB5AEC628A520C63CB5AEB
:104740000B5B0C638E73EB5A0C634D6BEC62EC628B
:104750002C630C630C630C632C63EC622D6B8E7307
:104760008E736D6BAE738E73EC62AE73AE738E73BD
:10477000CF7BAF7BCF7B1084AF7BCF7BEF7BF39C7A
:10478000518C30841084CF7B9294D39C729430846B
:10479000518C14A57294D39C518C108435AD34A5E2
:1047A00055AD96B575AD55AD14A576B575AD96B547
:1047B00055AD14A555AD76B575AD96B539CEF7BDE9
:1047C000B7BDF7BDB7BDF7BDF7BDF7BDB6B518C6E8
:1047D00018C618C638C618C638C659CE38C659CEF7
:1047E0007AD69AD6BAD6BBDEBBDE9AD659CEBAD620
:1047F00079CE9AD6DBDEFCE6DBDEBBDEBAD659CE5E
:10480000FBDEDBDEDBDEDBDEDBDEFBDEBBDEBBDEE0
:104810003CE75DEF5DEFFCE61CE75CE71CE77EF73D
:104820005DEF1CE73CE75DEF5DEF9EF77EF79DEFE8
:104830005DEF5DEF9EF77DEF5DEF3DEF7EF79EF75D
:104840005DEF7DEFBFFF5DEF7DEF9EF7DFFFBEF712
:104850005DEF5DEF7DEFBEF77EF71CE77DEF9EF726
:104860005DEF7DEF9EF7DFFF7DEF5DEF5EF79EF77B
:104870005DEF5DEF3CE7FCE63CE75DEF1CE71CE726
:104880009EF79EF73CE75DEF3DEFDBDE3CE73CE764
:10489000FCE6FCE61CE7FBDEFBDE9AD6DCE6BAD6DD
:1048A000FBDEFCE6BBDE5DEFFBDEDBDE79CEBBDEF6
:1048B000FBDE9AD659CE7AD6BAD6BBDE18C659CE0A
:1048C000BBDEFBDE9AD6BBDEBAD69AD67AD659CEF6
:1048D00018C659CE59CE18C639CE59CEF7BDD7BD58
:1048E00038C659CE18C6D7BD18C69AD659CE18C6DE
:1048F00018C618C6F8C5D7BDB6B596B5B6B5F8C5CD
:10490000B6B5D7BD96B5F39C2108410821084108EA
:10491000410861084108621082108210610862102B
:10492000610841086210610862106108610861084D
:10493000621040006210821041086108421082102B
:1049400082106108821062104108621082104108D2
:10495000621041086108410862106210821061080B
:104960006210610882106210610882108210610872
:104970006210A3188210A318610882108210A2107E
:10498000621061086210610882106108610882107B
:1049900062108210A2108210A210C318A318A210D5
:1049A000A318A210A31882106108A210621082102E
:1049B000A318A210621082108210C31882108210F5
:1049C0008210A3188210A210A318C318C318821053
:1049D000C318C318A21082108210C318A318821023
:1049E000A318A210A318A210A318C318C318C318A1
:1049F000C318C318C318A210C318C318E318C318E8
:104A0000A210C318C318A318C318E318A318C31817
:104A1000C318C3180421E4200319E3180421042156
:104A200024210421C318C318E420E318C318E42088
:104A3000C318C318E318C31804210421252904212D
:104A4000E31804210421E420E318E420E3180421FE
:104A5000252904212421252945292421042125292A
:104A6000652946314529252965296631652966313B
:104A700045296529A7396529652945298631C73919
:104A80008631652945296631652925294529652904
:104A900086318631C73986314529C739A739A631CC
:104AA000A631A631C7396631E7390842494A08427A
:104AB000E841A631C7396631C739C7392842C739F5
:104AC000C739E7390842694A294A294A084228422F
:104AD000294A494A08422842494A2842494A294A19
:104AE000294A494A694A6A520842E841694A8A524F
:104AF0008A526A528A52AB5ACB5AEB5AAB5A0C635F
:104B0000CB5A0D6B2D6B8E73EC626D6B6D6BEC6223
:104B10000C634D6B0C632C632C630C63EB5A6D6B55
:104B2000AF7BAE73AF7BCF7B4D6B0C63AF7BAE7354
:104B3000AF7BEF7BCF7BEF7B1084EF7BF083108428
:104B400014A5318C718C1084EF7BB39CD39C729430
:104B5000718CB39CF39CB294F39C518C518C55ADE9
:104B600035AD75AD96B576B555AD35AD76B596B571
:104B700096B555AD14A576B596B5B6B5B6B539CEDC
:104B8000F7BDD7BDF8C5F7BDD8C5F8C5F8C5B6B5EA
:104B900039CE38C639CE59CE18C659CE59CE39CEAF
:104BA00059CE9AD6BBDE9AD6BAD6DBDE9AD659CE85
:104BB000BBDE7AD6BAD6FCE61BDFDBDEBBDEBAD6BE
:104BC0007AD61CE7DBDEFBDEDBDEFCE6FBDEDBDED3
:104BD000DBDE5DEF5DEF5DEF1CE73CE73DEF3CE7C3
:104BE0007EF75DEF1CE73DEF5DEF7DEF9EF79EF7F3
:104BF0007EF75DEF5DEF9EF75DEF5DEF5DEF9EF79A
:104C00009EF75DEF7DEF9EF75DEF7EF79EF7DFFF8E
:104C10009EF73DEF5DEF9EF79EF77DEF1CE77EF779
:104C20009EF75DEF7EF79EF7DFFF5DEF5DEF5DEFD7
:104C30009EF73DEF3CE71CE7FCE61CE75DEFFBDE83
:104C40001CE79EF77EF7FCE67DEF1CE7BBDE3CE74A
:104C50001CE71CE7DBDE1CE7DBDEDBDE9AD6DBDEF7
:104C60009AD6FBDEFBDEBBDE5DEFBBDEDBDE79CEA4
:104C70009AD6FCE679CE59CE59CEBBDE9AD618C666
:104C800059CEBBDEDBDE9AD69AD69AD69AD69AD67B
:104C900018C6F8C579CE59CEF8C538C618C6D7BDDE
:104CA000D7BD39CE38C6F8C5B7BD38C69AD659CEA5
:104CB000F8C518C618C6D7BDD7BD96B576B5B6B572
:104CC000D7BDB7BDB6B576B5210820004108200094
:104CD0004108410862104108821082108210410888
:104CE0006210610841086210610862106210410898
:104CF0006210610841086210821041086108610871
:104D000082106210621082106108410862108108EE
:104D10004108621041084108610862106108621090
:104D200061086210610862108210610882108210AE
:104D300062106108C3188210A21062106210821003
:104D4000A31862106108821062108210621041087C
:104D5000821082108210A3188210A318A318A21028
:104D60008210A318A210A210821062108210610893
:104D7000A210C318A21062108210A210C420A210A8
:104D800062108210A210A318A210C318C318C3186F
:104D90008210C318C31882108210A210C318A21068
:104DA0008210C318A318C3188210A210C318C31806
:104DB000C318E318E420C318A318C318C318E318D2
:104DC000C318A318C318C318C318E318E318A21014
:104DD000C318C318C31804210421E420C3180421F4
:104DE000042104210421C318E318E420C318C318C4
:104DF000E318C318C3180421C3180421242125294A
:104E00000421E42004210421E42004210421E318E6
:104E10000421242104214529452945292529042146
:104E20006529663165294529042165298631863140
:104E30006631452945298631663166316631A631AC
:104E4000A7398631663165298631452925294529C5
:104E50004529A6318739C73986316529A739C73928
:104E6000A631A739C739C7398631E8410842294AEE
:104E70000842E841A631C7398631E739C739294A9E
:104E8000A739C739C73908426A522842294A494ACC
:104E90002842494A694AE841494A294A494A694AED
:104EA000494A494A694A694A494A284208426A5273
:104EB000AB5A8A528A52AA52CB5AEB5AEC62EB5A3C
:104EC0000C630C630C634D6B6D6BEC626D6B6D6B07
:104ED000EC622C636E732C632D6B4D6B0C630C6357
:104EE0008E73CF7B8E73CF7BCF7B4D6B4D6BEF7B08
:104EF000AF7BCF7BEF7BCF7B10841084F083EF7B85
:104F0000518C14A5318C729410843084F39CD39C02
:104F1000518C9294F4A4D39CF4A4D39C518C92947D
:104F200075AD55AD76B596B576B554A575AD96B556
:104F300096B5B6B555AD14A5B6B597BDB7BDF7BD19
:104F400039CEF7BDF7BDF8C518C6F7BD18C618C6E7
:104F5000D7BD59CE39CE59CE79CE18C67AD659CECC
:104F600038C69AD69AD6DBDEBAD6DBDEDBDE9AD638
:104F70007AD6BAD69AD6DBDE1CE7FCE6FBDEDBDEB1
:104F80009AD6BAD61CE7FCE6FCE6FBDE1CE7FCE69C
:104F9000DBDEFCE67DEF5DEF5DEF1CE75DEF3CE700
:104FA0005DEF9EF75DEF3CE75DEF7DEF9EF77EF7EF
:104FB0009EF77DEF5DEF5DEF9EF75DEF3CE75DEF08
:104FC0009EF79EF75DEF9EF79EF77DEF5DEFBFFFCB
:104FD000DFFFBEF73DEF5DEF9EF79EF75DEF1CE74D
:104FE0007EF79EF75DEF7DEFBFFFBEF73DEF3CE73D
:104FF0007DEF7DEF5DEF1CE71CE7FBDEFCE65DEF80
:10500000DBDE1CE79EF77DEFFBDE5DEFFCE6BAD64C
:105010001CE7FCE6FBDEDBDEFCE6DBDEBBDE7AD695
:10502000DBDE9AD6DBDEDBDEBBDE5DEF9AD69AD620
:105030007AD67AD6FBDE59CE59CE59CEBAD67AD6A2
:1050400018C659CEDBDEBAD69AD6BAD69AD659CE7B
:105050009AD618C6F7BD79CE39CEF7BD59CEF7BD71
:10506000D7BDD7BD39CE18C6F7BDB7BD39CE79CEBD
:1050700039CEF7BD18C6F8C5D7BDB7BD96B555AD85
:10508000B7BDD7BDB6B5B7BD41082108200041085E
:10509000210841084108621041088210A2108210C4
:1050A0004108621061086210621061088210610894
:1050B00041086210410841088210821041086210C4
:1050C000610882108210610882106210610862100B
:1050D000621061086210410861086210621082105B
:1050E0006108621062106108821062106210821002
:1050F000821062108210A3188210A2106108821020
:10510000A210A21062106108821062108210821038
:10511000610882108210A21082108210C318A31896
:10512000C3188210A318A318A21062106210A3184B
:105130006210A210A318A21082108210A210C3182D
:10514000A21062108210A2108318C318A318C318EB
:10515000C318A318C318C31882108210A318C31849
:105160008210A210C318A210A318A210A318C3186B
:10517000C318C318E318E420C318C318C318C3180E
:10518000C318C318A318E318C318C318E420E420F5
:10519000A210C318E318C31804210421E318E42063
:1051A000242125290421E420C318E318E420C3188E
:1051B000A3180421C318C318E420C31824212421F0
:1051C0002529E318042124210421E318E4200421E3
:1051D000E318252924210421452945296529252964
:1051E0000421652966316529252925298631652906
:1051F0008631652966316529A631452965298631BB
:10520000A739C7398631452966318631652925296F
:1052100065294529A6318631C73986316631C739B6
:10522000C739A631A739C739A739A631084228425C
:10523000494A0842E841A631C7398631E841C739B1
:10524000494AA739E841E73928426A5228420842C8
:10525000494A2842094A494AE739494A2842494ABB
:10526000694A294A494A6A526A52494A28420842C6
:10527000694ACB5A694A8A52AB5ACB5ACB5ACB5A53
:10528000EC62EB5A0C632C636E736E730C638E735B
:105290006E73EC620C636E732C632D6B8E73EC6219
:1052A0004D6BAF7BEF7BAE731084CF7B4D6B4D6B43
:1052B0001084CF7B10841084CF7B3084318C108499
:1052C000F083718C14A530849294EF7B518C14A5DB
:1052D000F39C7294B29434A5D39C34A5F4A4308486
:1052E000B39C96B555AD96B5B6B596B555AD76B5F4
:1052F00096B5B7BD96B576B534A5D7BDB6B5D7BD0D
:1053000018C639CED7BD18C618C638C6F8C538C6AF
:1053100018C6F8C579CE59CE79CE7AD659CE79CE7F
:105320007AD659CE9AD69AD6DBDEBBDEDBDEDBDE62
:105330009AD6BAD6BAD69AD6DBDE3CE71CE7FCE6AC
:10534000DBDE9BDEDBDE1CE71CE7FCE6FBDE3CE78E
:105350001CE7DBDE1CE79EF75DEF5DEF1CE77EF7E9
:105360001CE77DEF9EF75DEF3DEF5DEF7EF79EF76B
:105370009EF79EF75DEF5DEF7DEF9EF75DEF1CE71B
:105380005DEF9EF77EF75DEFBEF77EF77EF77DEF70
:10539000DFFFDFFF9EF73CE75DEFBFFF9EF73CE7D7
:1053A0003CE77EF79EF75DEF3DEFDFFF9EF71CE7E2
:1053B0003DEF5DEF5DEF5DEF1CE7DBDEFBDEFCE666
:1053C0003CE7BBDE3CE79EF75DEFDBDE5DEFFBDE3F
:1053D000BBDE1CE7DBDEFCE6DBDEDBDEBAD6BAD604
:1053E0007AD6BBDE9AD6BBDEDBDEDAD63DEF9AD6C6
:1053F00079CE9AD67AD6DBDE59CE39CE79CE9AD608
:1054000059CE18C659CEDBDE9AD67AD6BAD679CE20
:1054100039CE79CED8C5F8C559CE18C6F8C539CE1B
:10542000B6B5D7BDF7BD18C618C6D7BDB7BD38C607
:1054300059CE18C6D7BD18C6F7BD96B5B6B596B540
:1054400014A5F7BDB6B576B582104108210841080C
:10545000410820004108610862104108A210821032
:105460008210610862106108610882106210821067
:1054700041086108821041086108821082104108C9
:10548000621061088210821082108210610862101E
:1054900082106108610862104108410882106108A9
:1054A0008210610862108210610882108210610807
:1054B000A21082106108A210A2108318821062103C
:1054C0008210A210A3186108621061088210821075
:1054D0006108621082106210C31882108210C31813
:1054E000A210C3188210C318A210A2108210810843
:1054F00082106210C318C31882108210A318A31858
:10550000C31882108210A2108210A210E318C318D0
:10551000E318A210A318C318C31882108210A3188E
:10552000C318A2108318C318C318A210A210A3187E
:10553000E318A318E318E420E318C318C318C3182A
:10554000E318C318C318A318C318C318C318E31863
:10555000C420A318A318E318C31804210421E318D6
:10556000E420042144210421E420E318C318042189
:10557000C318A3180421C318E3180421E42004214C
:1055800024212529E31804210421E318E420E42040
:105590000421E31845292529252945296529652957
:1055A000242104216631863165294529242186314B
:1055B0008631A631452966316631A63166314529E5
:1055C0008631C739A739A63165296631A631452903
:1055D000252965296631A631A739C739652986315C
:1055E000C739C739A739C631E841A631A7390842BA
:1055F000294A48420842E841A739A631A631E7398D
:10560000C7392842A631E841E739294A8A52494A2E
:1056100028426A52494A694A494A08426A52494AF2
:105620006A528A52694A8A52AA52AB5A294A494A4C
:10563000494AAA52EC628A52CB5ACB5A0C63EC62AA
:10564000EB5A4D6BEC620C632C638E732D6BEC622A
:105650008D6B4D6B0C634D6B6D6B2D6B2C638E7373
:10566000EB5A4D6BEF7B318CAF7B3084F0834D6B0D
:105670008E731084EF7B1084318C1084318C1084F5
:1056800010841084D39CF4A4318C9294F08392946F
:1056900014A5F39C9294D39C55ADD39C55AD14A501
:1056A000518CF4A495AD76B5B7BDB7BDB6B555ADC3
:1056B00096B596B5F7BD96B576B535ADF7BDB7BD20
:1056C000F7BD59CE38C6D7BD18C618C659CEF8C5CD
:1056D00038C618C618C67AD659CE9AD67AD679CE92
:1056E0009AD679CE59CEBBDEBAD6FBDEDBDEFBDE48
:1056F000DBDE7AD6DBDEBBDEBAD6DCE63DEF1CE7CE
:10570000FCE6FBDEBAD6FCE61CE71CE71CE7FCE681
:105710003CE71CE7DBDE3CE79EF75DEF5DEF3CE737
:105720007EF73DEF7EF79EF75DEF3CE75DEF7DEFA7
:105730009EF77EF79EF75DEF3DEF7DEF9EF75DEF05
:105740003DEF5DEFBEF77EF75DEFBFFF7DEF7EF7CC
:105750007DEFDFFFFFFF7DEF3DEF7DEFBEF79EF7B3
:10576000FCE63CE75DEF7DEF5DEF3CE7DFFF9EF79A
:105770001CE73CE75EF73CE75DEF1CE7BBDEFBDECA
:10578000FCE63CE79AD63DEF9EF73DEFDBDE5DEFB2
:10579000BAD6BBDEFBDEDBDEFBDEDBDEDBDE9AD693
:1057A0007AD699CE9AD69AD6BAD6BBDEFBDE1CE75D
:1057B0009AD659CE79CE7AD6BAD639CE59CE79CEB6
:1057C0009AD618C618C679CEBBDE79CE7AD6BAD6A6
:1057D00059CE38C659CED7BD18C659CED7BDF7BD9C
:1057E00039CE76B5D7BDF8C5F8C5F7BDB6B5B7BDE6
:1057F00059CE39CEF7BDF7BDF8C5F7BD96B596B50C
:1058000096B514A5F8C576B5410862104000210888
:105810004108410841084108610862104108A31885
:1058200082108210610862106108621061088210A3
:1058300082104108410862104108621082108210F3
:10584000410862108210821062108210821061087A
:1058500062108210621061086108610841088210BC
:105860006210821061088210621082106210821031
:105870006210A21082106210A2108210A210821078
:1058800082108210A21082106108621062108210D1
:1058900082106210821082108210A3188210A2104F
:1058A000C318C318C3188210A318A318A21062103B
:1058B000821082108210C318C318821082108210C6
:1058C000C318A21082108210A318A210A318C31824
:1058D000C318E420A210C318C318C3188210A21062
:1058E000A318C3188210A210A318C318A318A210DB
:1058F000C318E318A318E318E420E420C318C3185E
:10590000C318E420C318E318C318C318C318C31876
:105910000421E318A318C318E420E3180421042188
:10592000E3180421252924210421C318E318C318EE
:105930000421C318C3180421C318E318E420E42089
:10594000242145292529E318042125290421E318C8
:1059500004212529E42065292421452945294631AA
:10596000652925292421663186316529252945297E
:1059700066318631A73965296529663186318631D8
:105980004529A631A739A73986314529863186317F
:105990006529252965296631A631A739C7396631B8
:1059A000C739C739C739C739A7390842A631C739F6
:1059B0000842294A2842E841E739C739A739A739B7
:1059C0000842E841294AC73908420842694AAA52AE
:1059D0006A5228428A52494A6A52494A2842694AC6
:1059E000494A8A528A526A528A528A52AA52494A69
:1059F000494A6A52AB5A0C638A52EB5AEC622C63E6
:105A00000C63EB5A6E730C634D6B4D6BCF7B6D6B00
:105A10002D6BAE734D6B0C634D6B4D6B2D6B4D6BE6
:105A20008E730C636E73CF7B1084CF7B3084EF7BDF
:105A30006E73CF7B318C10843084318C30847294BF
:105A40005084318C1084F39CF39C518C729410849C
:105A5000B39C35ADF39CB39C14A555ADD39C55AD0B
:105A600014A5929455AD75AD75ADD7BDD7BDB7BD75
:105A700055AD96B596B5F8C5B6B576B575ADF8C55C
:105A8000F7BDF8C57AD639CED7BD18C638C679CE97
:105A900039CE39CE18C659CE79CE7AD6BAD69AD65C
:105AA0007AD69AD679CE7AD6BBDEDBDEDBDEFCE6B2
:105AB000FBDEDBDE9AD6FBDEBBDEDBDEFBDE5DEF94
:105AC0003CE7FCE6FCE6BAD61CE73CE73CE71DEF0A
:105AD0001CE73DEF3CE7DCE65DEF9EF75DEF5DEF39
